:03000000020B0EE2
:0C0B0E00787FE4F6D8FD758120020B55BD
:100C1700010C00010B00010800010D00C181C1801A
:040C270002090000BE
:100BDB00300118E508D3950C5004D2908002C290D6
:0E0BEB00E508C3940A4006E4F50822C29022F1
:100BF900300018E50DD3950B5004D2918002C291B3
:0E0C0900E50DC3940A4006E4F50D22C29122C7
:03000B00020B9A4B
:100B9A00C0E0C0D0758CF8758A29050AE50A70028A
:100BAA0005090508050D120BDB120BF9D0D0D0E0B0
:010BBA003208
:0F0C2C00750C02750B02C2B3D2B4C2B5D2B62298
:0F0C3B00750C01750B01C2B3D2B4C2B5D2B6228B
:0F0C4A00750C04750B04D2B3D2B4C2B5D2B62266
:0F0C5900750C04750B04C2B3D2B4D2B5D2B62257
:0F0C6800750C08750B08D2B3D2B4C2B5D2B62240
:0F0C7700750C08750B08C2B3D2B4D2B5D2B62231
:100BBB00E4FDFCC3ED9FEC9E5015E4FBFA0BBB0070
:0F0BCB00010ABA07F8BBD0F50DBD00010C80E49C
:010BDA0022F8
:10080000E4F510F511758901758CF8758A29D28C7B
:10081000D2A9D2AF120C2C30A02730A32430A106CD
:1008200030A203120C2C20A10630A203120C4A3075
:10083000A10620A203120C5920A10620A203120C2B
:100840003B30A00320A3D0750E00750F01E4FFFE1E
:1008500030A00A30A307E4F50EF50F800B0FBF00A0
:10086000010EEF64654E70E8E50F450E60A90511B5
:10087000E51170020510E510709DE51114B4240017
:10088000509590089075F003A4C58325F0C5837337
:100890000208FC020926020AA0020AA2020AA40215
:1008A0000950020AA6020ABD020AC2020AC70209C8
:1008B0007A0209A40209CE020ACC020AA8020AD1CD
:1008C000020AD60209F8020A21020ADB020AAA0277
:1008D0000AAC020AE0020AAE020AB0020AB2020A36
:1008E000E5020AB4020AEA020AEF020AF4020A4A1C
:1008F000020A73020AB6020AB8020B0130A10630DE
:10090000A203120C2C20A10630A203120C4A30A123
:100910000620A203120C5930A10302081730A203CB
:10092000020817020A9A30A10630A203120C2C20EA
:10093000A10630A203120C4A30A10620A203120C19
:100940005930A10302081730A203020817020A9ABD
:1009500030A10630A203120C2C20A10630A20312F3
:100960000C4A30A10620A203120C5930A103020840
:100970001730A203020817020A9A30A10630A20318
:10098000120C2C20A10630A203120C4A30A1062022
:10099000A203120C5930A10302081730A203020867
:1009A00017020A9A30A10630A203120C2C20A106CD
:1009B00030A203120C4A30A10620A203120C5930B7
:1009C000A10302081730A203020817020A9A30A1F5
:1009D0000630A203120C2C20A10630A203120C4AEE
:1009E00030A10620A203120C5930A10302081730CF
:1009F000A203020817020A9A30A10630A203120CC1
:100A00002C20A10630A203120C4A30A10620A2031A
:100A1000120C5930A10302081730A20302081780F4
:100A20007930A10630A203120C2C20A10630A203BB
:100A3000120C4A30A10620A203120C5930A1030265
:100A4000081730A203020817805030A10630A20315
:100A5000120C2C20A10630A203120C4A30A1062051
:100A6000A203120C5930A10302081730A203020896
:100A700017802730A10630A203120C2C20A10630CB
:100A8000A203120C4A30A10620A203120C5930A175
:100A90000302081730A203020817120C3B020817C2
:100AA0008016801480128010800E800C800A8008CE
:100AB0008006800480028000120C68803A120C7755
:100AC0008035120C778030120C77802B120C7780D7
:100AD00026120C778021120C77801C120C7780175D
:100AE000120C778012120C77800D120C778008128E
:100AF0000C778003120C777F1D7E00120BBB02085F
:0E0B000017120C777F1D7E00120BBB02081728
:100B1A00020800E493A3F8E493A34003F68001F2E9
:100B2A0008DFF48029E493A3F85407240CC8C333DC
:100B3A00C4540F4420C8834004F456800146F6DFAB
:100B4A00E4800B0102040810204080900C17E47E18
:100B5A00019360BCA3FF543F30E509541FFEE493A0
:100B6A00A360010ECF54C025E060A840B8E493A367
:100B7A00FAE493A3F8E493A3C8C582C8CAC583CA92
:100B8A00F0A3C8C582C8CAC583CADFE9DEE780BE4A
:010C2B0000C8
:00000001FF
