:030000000209F3FF
:0C09F300787FE4F6D8FD758120020A3AF6
:100AFC00010C00010B00010800010D00C181C18037
:040B0C0002090000DA
:100AC000300118E508D3950C5004D2908002C290F2
:0E0AD000E508C3940A4006E4F50822C290220D
:100ADE00300018E50DD3950B5004D2918002C291CF
:0E0AEE00E50DC3940A4006E4F50D22C29122E4
:03000B00020A7F67
:100A7F00C0E0C0D0758CF8758A29050AE50A7002A6
:100A8F0005090508050D120AC0120ADED0D0D0E004
:010A9F003224
:0F0B1100750C02750B02C2B3D2B4C2B5D2B622B4
:0F0B2000750C01750B01C2B3D2B4C2B5D2B622A7
:0F0B2F00750C04750B04D2B3D2B4C2B5D2B62282
:0F0B3E00750C04750B04C2B3D2B4D2B5D2B62273
:0F0B4D00750C08750B08D2B3D2B4C2B5D2B6225C
:0F0B5C00750C08750B08C2B3D2B4D2B5D2B6224D
:100AA000E4FDFCC3ED9FEC9E5015E4FBFA0BBB008C
:0F0AB000010ABA07F8BBD0F50DBD00010C80E4B8
:010ABF002214
:10080000E4F510F511758901758CF8758A29D28C7B
:10081000D2A9D2AF120B1130A02730A32430A106E9
:1008200030A203120B1120A10630A203120B2F30AD
:10083000A10620A203120B3E20A10620A203120B48
:100840002030A00320A3D0750E00750F01E4FFFE39
:1008500030A00A30A307E4F50EF50F800B0FBF00A0
:10086000010EEF64654E70E8E50F450E60A90511B5
:10087000E51170020510E510709DE51114B40A0031
:10088000509590089075F003A4C58325F0C5837337
:100890000208AE0208D802090202092C0209550218
:1008A000097E0209A70209D90209E60209D430A18A
:1008B0000630A203120B1120A10630A203120B2F47
:1008C00030A10620A203120B3E30A103020817300C
:1008D000A2030208170209CE30A10630A203120BB0
:1008E0001120A10630A203120B2F30A10620A20373
:1008F000120B3E30A10302081730A20302081702B0
:1009000009CE30A10630A203120B1120A10630A29D
:1009100003120B2F30A10620A203120B3E30A103BD
:1009200002081730A2030208170209CE30A10630D0
:10093000A203120B1120A10630A203120B2F30A12B
:100940000620A203120B3E30A10302081730A203B7
:10095000020817807930A10630A203120B1120A1E2
:100960000630A203120B2F30A10620A203120B3E69
:1009700030A10302081730A203020817805030A1EB
:100980000630A203120B1120A10630A203120B2F76
:1009900030A10620A203120B3E30A103020817303B
:1009A000A203020817802730A10630A203120B1100
:1009B00020A10630A203120B2F30A10620A20312A1
:1009C0000B3E30A10302081730A203020817120BD6
:1009D00020020817120B4D8003120B5C7F1D7E0056
:1009E000120AA0020817120B5C7F1D7E00120AA0DB
:0309F000020817E3
:1009FF00020800E493A3F8E493A34003F68001F206
:100A0F0008DFF48029E493A3F85407240CC8C333F8
:100A1F00C4540F4420C8834004F456800146F6DFC7
:100A2F00E4800B0102040810204080900AFCE47E51
:100A3F00019360BCA3FF543F30E509541FFEE493BC
:100A4F00A360010ECF54C025E060A840B8E493A383
:100A5F00FAE493A3F8E493A3C8C582C8CAC583CAAE
:100A6F00F0A3C8C582C8CAC583CADFE9DEE780BE66
:010B100000E4
:00000001FF
