:030000000208A350
:0C08A300787FE4F6D8FD7581200208EA99
:1009AC00010C00010B00010800010D00C181C18088
:0409BC00020900002C
:10097000300118E508D3950C5004D2908002C29043
:0E098000E508C3940A4006E4F50822C290225E
:10098E00300018E50DD3950B5004D2918002C29120
:0E099E00E50DC3940A4006E4F50D22C2912235
:03000B0002092FB8
:10092F00C0E0C0D0758CF8758A30050AE50A7002F0
:10093F0005090508050D12097012098ED0D0D0E0F7
:01094F003275
:0F09C100750C03750B03C2B3D2B4C2B5D2B62204
:0F09D000750C02750B02C2B3D2B4C2B5D2B622F7
:0F09DF00750C05750B05D2B3D2B4C2B5D2B622D2
:0F09EE00750C05750B05C2B3D2B4D2B5D2B622C3
:0F09FD00750C08750B08D2B3D2B4C2B5D2B622AE
:0F0A0C00750C08750B08C2B3D2B4D2B5D2B6229E
:10095000E4FDFCC3ED9FEC9E5015E4FBFA0BBB00DD
:0F096000010ABA07F8BBD0F50DBD00010C80E409
:01096F002265
:10080000E4F510F511758901758CF8758A30D28C74
:10081000D2A9D2AF1209C130A02730A32430A1063B
:1008200030A2031209C120A10630A2031209DF3051
:10083000A10620A2031209EE20A10620A20312099C
:10084000D030A00320A3D0750E00750F01E4FFFE89
:1008500030A00A30A307E4F50EF50F800B0FBF00A0
:10086000010EEF64654E70E8E50F450E60A90511B5
:10087000E51170020510E5107023E51124F8600BF6
:1008800014600D1470171209FD8008120A0C800301
:10089000120A0C7F1E7E001209500208171209D09E
:0308A00002081734
:1008AF00020800E493A3F8E493A34003F68001F257
:1008BF0008DFF48029E493A3F85407240CC8C3334A
:1008CF00C4540F4420C8834004F456800146F6DF19
:1008DF00E4800B01020408102040809009ACE47EF4
:1008EF00019360BCA3FF543F30E509541FFEE4930E
:1008FF00A360010ECF54C025E060A840B8E493A3D5
:10090F00FAE493A3F8E493A3C8C582C8CAC583CAFF
:10091F00F0A3C8C582C8CAC583CADFE9DEE780BEB7
:0109C0000036
:00000001FF
