:03000000020926CC
:0C092600787FE4F6D8FD75812002096D91
:100A5500010C00010B00010800010D00C181C180DE
:040A65000209000082
:100A1900300118E508D3950C5004D2908002C29099
:0E0A2900E508C3940A4006E4F50822C29022B4
:100A3700300018E50DD3950B5004D2918002C29176
:0E0A4700E50DC3940A4006E4F50D22C291228B
:03000B000209D80F
:1009D800C0E0C0D0758CF8758A30050AE50A700247
:1009E80005090508050D120A19120A37D0D0D0E0FA
:0109F80032CC
:0F0A6A00750C03750B03C2B3D2B4C2B5D2B6225A
:0F0A7900750C02750B02C2B3D2B4C2B5D2B6224D
:0F0A8800750C05750B05D2B3D2B4C2B5D2B62228
:0F0A9700750C05750B05C2B3D2B4D2B5D2B62219
:0F0AA600750C08750B08D2B3D2B4C2B5D2B62204
:0F0AB500750C08750B08C2B3D2B4D2B5D2B622F5
:1009F900E4FDFCC3ED9FEC9E5015E4FBFA0BBB0034
:0F0A0900010ABA07F8BBD0F50DBD00010C80E45F
:010A180022BB
:10080000E4F510F511758901758CF8758A30D28C74
:10081000D2A9D2AF120A6A30A02730A32430A10691
:1008200030A203120A6A20A10630A203120A8830FD
:10083000A10620A203120A9720A10620A203120AF1
:100840007930A00320A3D0750E00750F01E4FFFEE0
:1008500030A00A30A307E4F50EF50F800B0FBF00A0
:10086000010EEF64654E70E8E50F450E60A90511B5
:10087000E51170020510E5106003020920E5111270
:1008800009B208C80308CA0408CC0508CE0708E165
:100890000808E60908EB0A08F00E08D00F08F51062
:1008A00008FA1108D21208FF1309041609091708DB
:1008B000D41808D61A08D81B08DA1C08DC1D090E43
:1008C0001E0913230000092080128010800E800C66
:1008D000800A80088006800480028000120AA680B8
:1008E00035120AB58030120AB5802B120AB580265F
:1008F000120AB58021120AB5801C120AB58017129F
:100900000AB58012120AB5800D120AB58008120AC3
:10091000B58003120AB57F1E7E001209F90208177E
:06092000120A790208171B
:10093200020800E493A3F8E493A34003F68001F2D3
:1009420008DFF48029E493A3F85407240CC8C333C6
:10095200C4540F4420C8834004F456800146F6DF95
:10096200E4800B0102040810204080900A55E47EC6
:10097200019360BCA3FF543F30E509541FFEE4938A
:10098200A360010ECF54C025E060A840B8E493A351
:10099200FAE493A3F8E493A3C8C582C8CAC583CA7C
:1009A200F0A3C8C582C8CAC583CADFE9DEE780BE34
:010A6900008C
:1009B200D083D082F8E4937012740193700DA3A3D4
:1009C20093F8740193F5828883E4737402936860E8
:0609D200EFA3A3A380DFE8
:00000001FF
