:03000000020BA848
:0C0BA800787FE4F6D8FD758120020BEF89
:100CB100010C00010B00010800010D00C181C18080
:040CC1000209000024
:100C7500300118E508D3950C5004D2908002C2903B
:0E0C8500E508C3940A4006E4F50822C2902256
:100C9300300018E50DD3950B5004D2918002C29118
:0E0CA300E50DC3940A4006E4F50D22C291222D
:03000B00020C34B0
:100C3400C0E0C0D0758CF8758A30050AE50A7002E8
:100C440005090508050D120C75120C93D0D0D0E0DF
:010C5400326D
:0F0CC600750C03750B03C2B3D2B4C2B5D2B622FC
:0F0CD500750C02750B02C2B3D2B4C2B5D2B622EF
:0F0CE400750C05750B05D2B3D2B4C2B5D2B622CA
:0F0CF300750C05750B05C2B3D2B4D2B5D2B622BB
:0F0D0200750C08750B08D2B3D2B4C2B5D2B622A5
:0F0D1100750C08750B08C2B3D2B4D2B5D2B62296
:100C5500E4FDFCC3ED9FEC9E5015E4FBFA0BBB00D5
:0F0C6500010ABA07F8BBD0F50DBD00010C80E401
:010C7400225D
:10080000E4F510F511758901758CF8758A30D28C74
:10081000D2A9D2AF120CC630A02730A32430A10633
:1008200030A203120CC620A10630A203120CE43041
:10083000A10620A203120CF320A10620A203120C91
:10084000D530A00320A3D0750E00750F01E4FFFE84
:1008500030A00A30A307E4F50EF50F800B0FBF00A0
:10086000010EEF64654E70E8E50F450E60A90511B5
:10087000E51170020510E510709DE51114B4240017
:10088000509590089075F003A4C58325F0C5837337
:100890000208FC020926020B48020B4A020B4C021A
:1008A0000950020B4E020B61020B66020B6B020930
:1008B0007A0209A40209CE020B70020B50020B75DA
:1008C000020B7A020B52020B7F0209F8020A220283
:1008D0000B84020B89020B54020A4C020B56020BCA
:1008E00058020B5A020B5C020B8E020A76020AA017
:1008F000020AC9020AF2020B9B020B1B30A106304E
:10090000A203120CC620A10630A203120CE430A1EF
:100910000620A203120CF330A10302081730A20331
:10092000020817020B4230A10630A203120CC620A7
:10093000A10630A203120CE430A10620A203120C7F
:10094000F330A10302081730A203020817020B427A
:1009500030A10630A203120CC620A10630A2031259
:100960000CE430A10620A203120CF330A10302080C
:100970001730A203020817020B4230A10630A2036F
:10098000120CC620A10630A203120CE430A10620EE
:10099000A203120CF330A10302081730A2030208CD
:1009A00017020B4230A10630A203120CC620A1068A
:1009B00030A203120CE430A10620A203120CF33083
:1009C000A10302081730A203020817020B4230A14C
:1009D0000630A203120CC620A10630A203120CE4BA
:1009E00030A10620A203120CF330A1030208173035
:1009F000A203020817020B4230A10630A203120C18
:100A0000C620A10630A203120CE430A10620A203E6
:100A1000120CF330A10302081730A20302081702D8
:100A20000B4230A10630A203120CC620A10630A250
:100A300003120CE430A10620A203120CF330A10330
:100A400002081730A203020817020B4230A1063039
:100A5000A203120CC620A10630A203120CE430A19E
:100A60000620A203120CF330A10302081730A203E0
:100A7000020817020B4230A10630A203120CC62056
:100A8000A10630A203120CE430A10620A203120C2E
:100A9000F330A10302081730A203020817020B4229
:100AA00030A10630A203120CC620A10630A2031208
:100AB0000CE430A10620A203120CF330A1030208BB
:100AC0001730A203020817807930A10630A2031262
:100AD0000CC620A10630A203120CE430A10620A20D
:100AE00003120CF330A10302081730A20302081707
:100AF000805030A10630A203120CC620A10630A2FD
:100B000003120CE430A10620A203120CF330A1035F
:100B100002081730A203020817802730A10630A26E
:100B200003120CC620A10630A203120CE430A10669
:100B300020A203120CF330A10302081730A2030213
:100B40000817120CD502081780128010800E800C36
:100B5000800A80088006800480028000120D0280D6
:100B600030120D11802B120D118026120D118021D3
:100B7000120D11801C120D118017120D118012120E
:100B80000D11800D120D118008120D118003120D30
:100B9000117F1E7E00120C55020817120D117F1EC8
:080BA0007E00120C550208173B
:100BB400020800E493A3F8E493A34003F68001F24F
:100BC40008DFF48029E493A3F85407240CC8C33342
:100BD400C4540F4420C8834004F456800146F6DF11
:100BE400E4800B0102040810204080900CB1E47EE4
:100BF400019360BCA3FF543F30E509541FFEE49306
:100C0400A360010ECF54C025E060A840B8E493A3CC
:100C1400FAE493A3F8E493A3C8C582C8CAC583CAF7
:100C2400F0A3C8C582C8CAC583CADFE9DEE780BEAF
:010CC500002E
:00000001FF
